:0400000007EF00F016
:0A00080076820FED03F035EF05F0EE
:1006000000707720636F7272656374007077207773
:10061000726F6E6700636C6561726564000006004E
:10062000FACF65F0FBCF66F0E9CF67F0EACF68F06C
:10063000E1CF69F0E2CF6AF0D9CF6BF0DACF6CF09E
:10064000F3CF6DF0F4CF6EF0F6CF6FF0F7CF70F020
:10065000F8CF71F0F5CF72F0F2A26FD0D890803061
:100660000F0B636E646A220E6324D96E000E642041
:10067000DA6EDF50756E020EB5EC04F0450E75189B
:10068000D8B404D0430E7518D8A444D0450E7518BC
:10069000D8A418D0D2EC03F05BC073F05CC074F047
:1006A00073507410D8B407D0010E5C6E060E5D6EE8
:1006B00029EC04F00DD00C0E5C6E060E5D6E29EC7C
:1006C00004F006D0150E5C6E060E5D6E29EC04F08B
:1006D000000E4A6E0F0E4A6401D00CD04A50010D34
:1006E0004B0EF324D96E000EF420DA6E000EDF6E8E
:1006F0004A2AF0D7000E486E060E646E130E636E23
:10070000AE0EE82EFED7632EFCD7642EFAD7F9EC96
:1007100004F011D04850010D4B0EF324D96E000E99
:10072000F420DA6E75C0DFFF4B0E5C6E000E5D6E5E
:1007300029EC04F0482AF29217D0F0A008D0670EF6
:10074000D76E690ED66E0F0EBA6EF0900DD0F2A471
:100750000BD081B206D0670ED76E690ED66E0F0E23
:1007600001D0000EBA6EF29472C0F5FF71C0F8FFAE
:1007700070C0F7FF6FC0F6FF6EC0F4FF6DC0F3FFEF
:100780006CC0DAFF6BC0D9FF6AC0E2FF69C0E1FF4D
:1007900068C0EAFF67C0E9FF66C0FBFF65C0FAFFFB
:1007A00076921100000E606E030E5F6E000E626E98
:1007B000000E616E62BE06D0625046E1100E615CB2
:1007C000D8B042D0120E6124D96E000E6220DA6ECB
:1007D0004B0E6124E16E000E6220E26EDE50E618E0
:1007E000D8A409D04B0E6124D96E000E6220DA6EB7
:1007F000DF50D8A422D0120E6124D96E000E6220E0
:10080000DA6E4B0E6124E16E000E6220E26EDE5065
:10081000E618D8A40DD04B0E6124D96E000E6220CC
:10082000DA6EDF50D8A404D0000E606E010E03D043
:10083000000E606E000E5F6E07D0614A622A62BED3
:10084000C1D7625001E1BAD75FC05BF060C05CF015
:100850001200060EB5EC04F0000E4A6E1DD04A5090
:10086000010D5CC05EF05DC05FF0F3505E26F45099
:100870005F225EC0F6FF5FC0F7FFF86A050EF764FF
:1008800003D00800F55005D0F6CFE9FFF7CFEAFF17
:10089000EF5091EC04F04A2A4A50010D5CC05EF022
:1008A0005DC05FF0F3505E26F4505F225EC0F6FF3D
:1008B0005FC0F7FFF86A050EF76403D00800F55033
:1008C00005D0F6CFE9FFF7CFEAFFEF500009D8A433
:1008D000C6D7200E91EC04F012000001806F8494C2
:1008E00080C049F0848249C082FFC80E00D0E82E43
:1008F000FDD78492C80E00D0E82EFDD780C049F005
:10090000493AF00E491684824950F00B826EC80EA7
:1009100000D0E82EFDD78492C80E00D0E82EFDD777
:1009200012005B6E84845BC049F084824950F00BF6
:10093000826EC80E00D0E82EFDD78492C80E00D07B
:10094000E82EFDD75BC049F0493AF00E4916848283
:100950004950F00B826EC80E00D0E82EFDD784926D
:10096000C80E00D0E82EFDD712005B6E84945BC0E9
:1009700049F0848249C082FFC80E00D0E82EFDD71E
:100980008492C80E00D0E82EFDD75BC049F0493AEA
:10099000F00E491684824950F00B826EC80E00D0CA
:1009A000E82EFDD78492C80E00D0E82EFDD71200A5
:1009B0000F0EC16EDF0E926E9368090E946E000EDC
:1009C000956E080E966E52EC05F0F29ED09EF29255
:1009D000F288F19CF090F086F19AF194860ED56E33
:1009E000670ED76E690ED66EF294F28AF28EF28C92
:1009F0001200020EB5EC04F0000E4A6E0CD04A5004
:100A0000010D010EF324D96E000EF420DA6EDF50D2
:100A100091EC04F04A2A4A50010D010EF324D96EDC
:100A2000000EF420DA6EDF50D8B41200E8D7202090
:100A300020202020202020202020202020200030C6
:100A4000333130323000000000000000000000317F
:100A500032334634353645373839444130424340E5
:090A60007924301912027800100B
:100A6A002E0EF66E0A0EF76E000EF86E00EE01F00C
:100A7A0010EE3BF00900F5CFEEFFE550E150FAE148
:100A8A0000EE3CF01F0EEE6AE806FDE176907692E3
:100A9A00000EF86E00016BEF05F0050EE82EFED78A
:100AAA00030E6DEC04F000D000D000F0020E6DECE5
:100ABA0004F0280E6DEC04F00C0E6DEC04F0060E3A
:100ACA006DEC04F0010E6DEC04F01200D8EC04F0A9
:100ADA00050ECA6EF90ECB6EBD0EBB6E0F0EBA6E48
:020AEA00FFD734
:020000040020DA
:08000000FFFFFFFFFFFFFFFF00
:020000040030CA
:0E000000FF011F1EFF8381FF0FC00FE00F40A6
:00000001FF
